:02000000622B71
:10000800FF00030E8301AE000A08AD008A017008E4
:10001800A2007108A1000B1D8D28F8308100013065
:100028000605F1007108250603192B280618232850
:10003800071087160130A802031CA90328280714F3
:100048008712A80A0319A90A01300605A50002307B
:100058000605F100710827060319432886183B286E
:10006800871007170130A802031CA903402887142A
:100078000713A80A0319A90A02300605A7000430C5
:100088000605F1007108260603195B28061953288E
:10009800071187170130A802031CA9035828071560
:1000A8008713A80A0319A90A04300605A600083010
:1000B8000605F100710824060319732886196B28B0
:1000C800871108140130A802031CA903702887159A
:1000D8000810A80A0319A90A08300605A400103058
:1000E8000605F1007108230603198B28061A8328D0
:1000F800071288140130A802031CA90388280716D0
:100108008810A80A0319A90A10300605A300FB30B5
:100118008B052208F0002108F1002D088A002E0E18
:080128008300FF0E7F0E0900A9
:0E013000F201F101F001F801F30100300800C6
:10013E007B15FB1FA9280130F300F201F101F0013C
:08014E00FA0DF20CFF3008006D
:08015600FA1FF213003008004B
:06015E00FB15FF30080054
:100164007B14FB1FBD28F201FA1FFF30F200F100DF
:0A017400F000FA0DF20CFF30080055
:10017E00A0017208031DD4287108F2007008F10066
:10018E00F001A0157208031DD4287108F200F101C8
:10019E00A011201672080319E2282008F302031D8D
:1001AE00031CE6280310F21BEA28F00DF10DF20DE8
:1001BE00F30BDA28E6280130FC009820ED280230F7
:0E01CE00FC009F20ED280430FC00AB20080050
:1001DC00FB14FB1FF828FF30F300F200F100F000D5
:0801EC00FA0DF20CFF300800CF
:1001F400831203137008F8007108F000F101F20192
:10020400F301FB01FC019630F300FA017008F100E0
:0C0214007808F000F801F201BF2008009B
:1002200083120313B101B201B101B20130083202ED
:10023000031D1C292F083102031824290000000087
:0A024000B10A0319B20A16290800DA
:10024A00831203137408003A031D40297508003A03
:10025A00031D40297608003A031D40297708003A11
:10026A00031D4029FF30F000FF30F1007F30F2001B
:10027A00FF30F300DB298312031377080319CF2910
:10028A0073080319D229720876068039FA00F21720
:10029A00F617A0017208F8007108FC007008FD004A
:1002AA007408FD027508031C750FFC027608031C0E
:1002BA00760FF802F801FC01FD01031C6B290310FB
:1002CA00F20CF10CF00CF80C0130A0007708F302E4
:1002DA00031C75297E302007F3070318D5297A29CC
:1002EA007E302007F307031CD8291830FA07FD0DC2
:1002FA00FC0DF80DF00DF10DF20DA00D7408F002D1
:10030A007508031C750FF1027608031C760FF202BA
:10031A00760DA004201C93297D149E297408F007E9
:10032A0075080318750FF10776080318760AF2079D
:10033A007D10FA031F307A05031D7C297B1B7D1C67
:10034A00C5290310F00DF10DF20DA00D7408F0028D
:10035A007508031C750FF1027608031C760FF2026A
:10036A00760D20040139FD070318FC0A0319F80A5F
:10037A00031DC529F80CFC0CFD0CF30A0319D52939
:10038A00FA1FF8137808F2007C08F1007D08F000E3
:10039A000030DA290130AF20DA2902309820DA2930
:0E03AA000430EE20DA2908309F200000080001
:1003B80083120313F801F9011030FC00710DF80DD8
:1003C800F90D7408F8027508031C750FF902031873
:1003D800F4297408F80775080318750FF90703104E
:0A03E800F00DF10DFC0BE2290800F6
:1003F20083120313FB01FA01F9018030F800F10CBA
:10040200F00C031C0D2A7408F90775080318750F00
:10041200FA070318FB0A0310F01F152A7408FA07DB
:1004220075080318750FFB07FB0CFA0CF90CF80C96
:10043200031C002A7B08F3007A08F2007908F10015
:060442007808F00008003C
:1004480083120313FB01FC01FA0173080319632AE1
:10045800F2178E30F302F31B342A0319342A662A62
:10046800F309F30A08307302031C492AF300F10D5B
:100478007208F100F20108307302031C492AF10DD9
:10048800F1017308031D0310512A73080319512A37
:100498000310F20CF10CF30B4C2A7B1B711C5B2A2A
:1004A800031C5B2AF10A0319F20AF21B722AFA1FCB
:1004B800752AF209F109F10A0319F20A752AF201FB
:1004C800F101752A7B14FB1F782AF201FA1F782A9A
:1004D800FF30F200F100FA0DF20C782A0130FC002E
:1004E8007A2A0030FC007A2AFF30FC00FC08031945
:0E04F8007E2AB2207108F0007208F1000800A0
:1005060083120313F101F20100307202031D8D2ADA
:10051600323071020318A82A05150230FC008D300E
:10052600FD00FD0B942AFC0B942A00000000FB3012
:1005360085053F30FC005530FD00FD0BA02AFC0B65
:0C054600A02AF10A0319F20A872A080013
:1005520083120313B101B201B301B401B101B201BB
:1005620030083202031DB72A2F0831020318CB2AA2
:10057200B301B40100303402031DC12A9B3033029F
:100582000318C72AB30A0319B40ABB2AB10A03190A
:06059200B20AB12A0800C4
:0E059800831203132B088A002A088200080031
:1005A60083120313F101F20100307202031DDD2AEA
:1005B600323071020318F72A05150530FC00263083
:1005C600FD00FD0BE42AFC0BE42A0000FB30850548
:1005D6003F30FC005530FD00FD0BEF2AFC0BEF2AE7
:0A05E600F10A0319F20AD72A0800EF
:1005F000831203131F151F1DFE2AFB2A1E08F1007C
:10060000F00183161E08F0040030F104F430F40009
:100610000130F500F921FF30F4000330F500DC2152
:020620000800D0
:10062200831203138F018E0186160A30AF00003049
:10063200B0001021DF308605061B202B1D2B101465
:10064200061F242B212BFE3090050F08F100F0012C
:100652000E08F0040030F104FA20AE30F400473006
:10066200F5006B30F6008430F70025212422710852
:10067200003C031D3E2B7008233C031C472BD32256
:10068200E830AF000330B000A9224D2B8322E830BE
:0A069200AF000330B000A9220800F9
:10069C00CC228A110A128000840AAA0A0319AB0A16
:0806AC00F003031D4E2B0800B2
:1006B400CE30831603139F00413083129F0008003D
:1006C400013083120313A3000130A4000130A500FC
:1006D4000130A6000130A700A801A901FB30831650
:1006E40085005F30860088018701831286018501B9
:1006F40087018801F8308100073083168100A0301B
:100704008B001030831290001430AF000030B00022
:10071400A9225A231123F8227008AC00700AAC00F5
:0E0724002C30AF000130B000A9228C2B982B96
:02400E004A2F37
:00000001FF
